:100000000C9434000C943E000C943E000C943E0082
:100010000C943E000C943E000C943E000C943E0068
:100020000C943E000C943E000C943E000C943E0058
:100030000C943E000C943E000C943E000C943E0048
:100040000C943E000C943E000C943E000C943E0038
:100050000C943E000C943E000C943E000C943E0028
:100060000C943E000C943E0011241FBECFEFD8E04C
:10007000DEBFCDBF0E94BA000C94CC000C940000EF
:100080001092C50087E68093C40088E18093C10088
:1000900086E08093C20008959091C00095FFFCCF48
:1000A0008093C6000895CF93DF93EC01899181116D
:1000B00003C0DF91CF9108950E944C00F7CF80914B
:1000C000C000807808958091C00087FFFCCF08951C
:1000D0000E9463008091C00087FFFCCF8091C60022
:1000E00008958091C000807208958091C00085FFBE
:1000F000FCCF08952D9A08952D980895259A0C9473
:100100007C000F931F93CF93DF938C010E947C00A0
:10011000C0E0D0E0C017D10774F02FEF89E698E176
:10012000215080409040E1F700C00000DF91CF9166
:100130001F910F9108952FEF89E698E1215080409B
:100140009040E1F700C000000E947A002FEF89E69E
:1001500098E1215080409040E1F700C000000E94EB
:100160007C002196D7CF90ED980F81E09A3008F06F
:1001700080E008950E9440000E947E000E94680076
:1001800090ED980F9A3028F490E0C0970E9481007B
:0C019000F5CF0E944C00F2CFF894FFCF96
:00000001FF
